{
  "contractName": "ProofOfExistence",
  "abi": [
    {
      "inputs": [],
      "payable": false,
      "stateMutability": "nonpayable",
      "type": "constructor"
    },
    {
      "anonymous": false,
      "inputs": [
        {
          "indexed": true,
          "internalType": "string",
          "name": "description",
          "type": "string"
        },
        {
          "indexed": false,
          "internalType": "string",
          "name": "hashStr",
          "type": "string"
        },
        {
          "indexed": true,
          "internalType": "string",
          "name": "tags",
          "type": "string"
        },
        {
          "indexed": true,
          "internalType": "uint256",
          "name": "timeStamp",
          "type": "uint256"
        }
      ],
      "name": "LogAddIPFSHash",
      "type": "event"
    },
    {
      "constant": true,
      "inputs": [],
      "name": "dataCount",
      "outputs": [
        {
          "internalType": "uint256",
          "name": "",
          "type": "uint256"
        }
      ],
      "payable": false,
      "stateMutability": "view",
      "type": "function"
    },
    {
      "constant": true,
      "inputs": [],
      "name": "owner",
      "outputs": [
        {
          "internalType": "address",
          "name": "",
          "type": "address"
        }
      ],
      "payable": false,
      "stateMutability": "view",
      "type": "function"
    },
    {
      "constant": false,
      "inputs": [
        {
          "internalType": "string",
          "name": "description",
          "type": "string"
        },
        {
          "internalType": "string",
          "name": "hashStr",
          "type": "string"
        },
        {
          "internalType": "string",
          "name": "tags",
          "type": "string"
        }
      ],
      "name": "addIPFSHash",
      "outputs": [],
      "payable": false,
      "stateMutability": "nonpayable",
      "type": "function"
    },
    {
      "constant": true,
      "inputs": [
        {
          "internalType": "uint256",
          "name": "DataMapIndex",
          "type": "uint256"
        }
      ],
      "name": "getData",
      "outputs": [
        {
          "internalType": "string",
          "name": "description",
          "type": "string"
        },
        {
          "internalType": "string",
          "name": "hashStr",
          "type": "string"
        },
        {
          "internalType": "string",
          "name": "tags",
          "type": "string"
        },
        {
          "internalType": "uint256",
          "name": "timeStamp",
          "type": "uint256"
        }
      ],
      "payable": false,
      "stateMutability": "view",
      "type": "function"
    }
  ],
  "bytecode": "0x608060405234801561001057600080fd5b50336000806101000a81548173ffffffffffffffffffffffffffffffffffffffff021916908373ffffffffffffffffffffffffffffffffffffffff1602179055506109be806100606000396000f3fe608060405234801561001057600080fd5b506004361061004c5760003560e01c80630178fe3f14610051578063500b2432146101d75780635da40c47146102fa5780638da5cb5b14610318575b600080fd5b61007d6004803603602081101561006757600080fd5b8101908080359060200190929190505050610362565b60405180806020018060200180602001858152602001848103845288818151815260200191508051906020019080838360005b838110156100cb5780820151818401526020810190506100b0565b50505050905090810190601f1680156100f85780820380516001836020036101000a031916815260200191505b50848103835287818151815260200191508051906020019080838360005b83811015610131578082015181840152602081019050610116565b50505050905090810190601f16801561015e5780820380516001836020036101000a031916815260200191505b50848103825286818151815260200191508051906020019080838360005b8381101561019757808201518184015260208101905061017c565b50505050905090810190601f1680156101c45780820380516001836020036101000a031916815260200191505b5097505050505050505060405180910390f35b6102f8600480360360608110156101ed57600080fd5b810190808035906020019064010000000081111561020a57600080fd5b82018360208201111561021c57600080fd5b8035906020019184600183028401116401000000008311171561023e57600080fd5b90919293919293908035906020019064010000000081111561025f57600080fd5b82018360208201111561027157600080fd5b8035906020019184600183028401116401000000008311171561029357600080fd5b9091929391929390803590602001906401000000008111156102b457600080fd5b8201836020820111156102c657600080fd5b803590602001918460018302840111640100000000831117156102e857600080fd5b90919293919293905050506105a5565b005b6103026108b9565b6040518082815260200191505060405180910390f35b6103206108bf565b604051808273ffffffffffffffffffffffffffffffffffffffff1673ffffffffffffffffffffffffffffffffffffffff16815260200191505060405180910390f35b606080606060006001600086815260200190815260200160002060000160016000878152602001908152602001600020600101600160008881526020019081526020016000206002016001600089815260200190815260200160002060030154838054600181600116156101000203166002900480601f0160208091040260200160405190810160405280929190818152602001828054600181600116156101000203166002900480156104575780601f1061042c57610100808354040283529160200191610457565b820191906000526020600020905b81548152906001019060200180831161043a57829003601f168201915b50505050509350828054600181600116156101000203166002900480601f0160208091040260200160405190810160405280929190818152602001828054600181600116156101000203166002900480156104f35780601f106104c8576101008083540402835291602001916104f3565b820191906000526020600020905b8154815290600101906020018083116104d657829003601f168201915b50505050509250818054600181600116156101000203166002900480601f01602080910402602001604051908101604052809291908181526020018280546001816001161561010002031660029004801561058f5780601f106105645761010080835404028352916020019161058f565b820191906000526020600020905b81548152906001019060200180831161057257829003601f168201915b5050505050915093509350935093509193509193565b6000868690501161061e576040517f08c379a00000000000000000000000000000000000000000000000000000000081526004018080602001828103825260138152602001807f6465736372697074696f6e206d697373696e670000000000000000000000000081525060200191505060405180910390fd5b60008484905011610697576040517f08c379a000000000000000000000000000000000000000000000000000000000815260040180806020018281038252600f8152602001807f68617368537472206d697373696e67000000000000000000000000000000000081525060200191505060405180910390fd5b604051806080016040528087878080601f016020809104026020016040519081016040528093929190818152602001838380828437600081840152601f19601f82011690508083019250505050505050815260200185858080601f016020809104026020016040519081016040528093929190818152602001838380828437600081840152601f19601f82011690508083019250505050505050815260200183838080601f016020809104026020016040519081016040528093929190818152602001838380828437600081840152601f19601f8201169050808301925050505050505081526020014281525060016000600254815260200190815260200160002060008201518160000190805190602001906107b59291906108e4565b5060208201518160010190805190602001906107d29291906108e4565b5060408201518160020190805190602001906107ef9291906108e4565b50606082015181600301559050504282826040518083838082843780830192505050925050506040518091039020878760405180838380828437808301925050509250505060405180910390207fef38001ad07035c92bd04574ec422f5a2223e6dc30c59020a91cf0000d4214e8878760405180806020018281038252848482818152602001925080828437600081840152601f19601f820116905080830192505050935050505060405180910390a4600260008154809291906001019190505550505050505050565b60025481565b6000809054906101000a900473ffffffffffffffffffffffffffffffffffffffff1681565b828054600181600116156101000203166002900490600052602060002090601f016020900481019282601f1061092557805160ff1916838001178555610953565b82800160010185558215610953579182015b82811115610952578251825591602001919060010190610937565b5b5090506109609190610964565b5090565b61098691905b8082111561098257600081600090555060010161096a565b5090565b9056fea265627a7a72315820a1fd7e4380a91ddb45b73e3cccf0426cd280be767fccaa7d92a3fcc9de2b96f964736f6c634300050c0032",
  "source": "pragma solidity ^0.5.0;\n\n\n// TODO: factory function!\n\ncontract ProofOfExistence {\n\n    address public owner; // TODO: openZeppelin owner role\n    /*\n    * @dev these two state variables hold the data count and store the data structs\n    */\n    mapping(uint => Data) DataMap;\n    uint public dataCount;\n\n    /*\n    * @dev each Data has a description, hashStr, and stamp time\n    */\n    struct Data {\n        string description;\n        string hashStr;\n        string tags;\n        uint timeStamp;\n    }\n\n    /*\n    * @dev logs adding an IPFS hash to a User's account\n    */\n    event LogAddIPFSHash(string indexed description, string hashStr, string indexed tags, uint indexed timeStamp);\n\n    constructor() public {\n        owner = msg.sender; // TODO: modify to accept address when factory function implemented\n    }\n\n    /*\n    * @dev Adds ipfs hash using description and hashStr\n    * @param description\n    * @param hashStr\n    */\n    function addIPFSHash(string calldata description, string calldata hashStr, string calldata tags) external {\n        require(bytes(description).length > 0, \"description missing\");\n        require(bytes(hashStr).length > 0, \"hashStr missing\"); // not exact but can do check on front end as a less secure work around\n\n        DataMap[dataCount] = Data(description, hashStr, tags, block.timestamp);\n        emit LogAddIPFSHash(description, hashStr, tags, block.timestamp);\n\n        dataCount++; // can use safeMath but unlikely to overflow uint256\n    }\n\n    /*\n    * @dev getting for the IPFS hash for a user\n    */\n    function getData(uint DataMapIndex) external view returns(string memory description, string memory hashStr, string memory tags, uint timeStamp) {\n        return (DataMap[DataMapIndex].description, DataMap[DataMapIndex].hashStr, DataMap[DataMapIndex].tags, DataMap[DataMapIndex].timeStamp);\n    }\n}\n",
  "sourcePath": "/mnt/c/Users/Legacy/Documents/Code/Ethereum/Consensys-Academy/checkpoints/proofOfExistence/contracts/ProofOfExistence.sol",
  "compiler": {
    "name": "solc",
    "version": "0.5.12+commit.7709ece9.Emscripten.clang"
  },
  "schemaVersion": "3.0.20",
  "updatedAt": "2020-01-10T19:00:42.693Z",
  "networkType": "ethereum",
  "devdoc": {
    "methods": {}
  },
  "userdoc": {
    "methods": {}
  }
}