{
  "contractName": "ProofOfExistence",
  "abi": [
    {
      "inputs": [],
      "payable": false,
      "stateMutability": "nonpayable",
      "type": "constructor"
    },
    {
      "anonymous": false,
      "inputs": [
        {
          "indexed": true,
          "internalType": "string",
          "name": "description",
          "type": "string"
        },
        {
          "indexed": false,
          "internalType": "string",
          "name": "hashStr",
          "type": "string"
        },
        {
          "indexed": true,
          "internalType": "string",
          "name": "tags",
          "type": "string"
        },
        {
          "indexed": true,
          "internalType": "uint256",
          "name": "timeStamp",
          "type": "uint256"
        }
      ],
      "name": "LogAddIPFSHash",
      "type": "event"
    },
    {
      "constant": true,
      "inputs": [
        {
          "internalType": "uint256",
          "name": "",
          "type": "uint256"
        }
      ],
      "name": "DataMap",
      "outputs": [
        {
          "internalType": "string",
          "name": "description",
          "type": "string"
        },
        {
          "internalType": "string",
          "name": "hashStr",
          "type": "string"
        },
        {
          "internalType": "string",
          "name": "tags",
          "type": "string"
        },
        {
          "internalType": "uint256",
          "name": "timeStamp",
          "type": "uint256"
        }
      ],
      "payable": false,
      "stateMutability": "view",
      "type": "function"
    },
    {
      "constant": true,
      "inputs": [],
      "name": "dataCount",
      "outputs": [
        {
          "internalType": "uint256",
          "name": "",
          "type": "uint256"
        }
      ],
      "payable": false,
      "stateMutability": "view",
      "type": "function"
    },
    {
      "constant": true,
      "inputs": [],
      "name": "owner",
      "outputs": [
        {
          "internalType": "address",
          "name": "",
          "type": "address"
        }
      ],
      "payable": false,
      "stateMutability": "view",
      "type": "function"
    },
    {
      "constant": false,
      "inputs": [
        {
          "internalType": "string",
          "name": "description",
          "type": "string"
        },
        {
          "internalType": "string",
          "name": "hashStr",
          "type": "string"
        },
        {
          "internalType": "string",
          "name": "tags",
          "type": "string"
        }
      ],
      "name": "addIPFSHash",
      "outputs": [],
      "payable": false,
      "stateMutability": "nonpayable",
      "type": "function"
    },
    {
      "constant": true,
      "inputs": [
        {
          "internalType": "uint256",
          "name": "DataMapIndex",
          "type": "uint256"
        }
      ],
      "name": "getData",
      "outputs": [
        {
          "internalType": "string",
          "name": "description",
          "type": "string"
        },
        {
          "internalType": "string",
          "name": "hashStr",
          "type": "string"
        },
        {
          "internalType": "string",
          "name": "tags",
          "type": "string"
        },
        {
          "internalType": "uint256",
          "name": "timeStamp",
          "type": "uint256"
        }
      ],
      "payable": false,
      "stateMutability": "view",
      "type": "function"
    }
  ],
  "bytecode": "0x608060405234801561001057600080fd5b50336000806101000a81548173ffffffffffffffffffffffffffffffffffffffff021916908373ffffffffffffffffffffffffffffffffffffffff160217905550610d47806100606000396000f3fe608060405234801561001057600080fd5b50600436106100575760003560e01c80630178fe3f1461005c5780633fe1e1a2146101e2578063500b2432146103685780635da40c471461048b5780638da5cb5b146104a9575b600080fd5b6100886004803603602081101561007257600080fd5b81019080803590602001909291905050506104f3565b60405180806020018060200180602001858152602001848103845288818151815260200191508051906020019080838360005b838110156100d65780820151818401526020810190506100bb565b50505050905090810190601f1680156101035780820380516001836020036101000a031916815260200191505b50848103835287818151815260200191508051906020019080838360005b8381101561013c578082015181840152602081019050610121565b50505050905090810190601f1680156101695780820380516001836020036101000a031916815260200191505b50848103825286818151815260200191508051906020019080838360005b838110156101a2578082015181840152602081019050610187565b50505050905090810190601f1680156101cf5780820380516001836020036101000a031916815260200191505b5097505050505050505060405180910390f35b61020e600480360360208110156101f857600080fd5b8101908080359060200190929190505050610736565b60405180806020018060200180602001858152602001848103845288818151815260200191508051906020019080838360005b8381101561025c578082015181840152602081019050610241565b50505050905090810190601f1680156102895780820380516001836020036101000a031916815260200191505b50848103835287818151815260200191508051906020019080838360005b838110156102c25780820151818401526020810190506102a7565b50505050905090810190601f1680156102ef5780820380516001836020036101000a031916815260200191505b50848103825286818151815260200191508051906020019080838360005b8381101561032857808201518184015260208101905061030d565b50505050905090810190601f1680156103555780820380516001836020036101000a031916815260200191505b5097505050505050505060405180910390f35b6104896004803603606081101561037e57600080fd5b810190808035906020019064010000000081111561039b57600080fd5b8201836020820111156103ad57600080fd5b803590602001918460018302840111640100000000831117156103cf57600080fd5b9091929391929390803590602001906401000000008111156103f057600080fd5b82018360208201111561040257600080fd5b8035906020019184600183028401116401000000008311171561042457600080fd5b90919293919293908035906020019064010000000081111561044557600080fd5b82018360208201111561045757600080fd5b8035906020019184600183028401116401000000008311171561047957600080fd5b909192939192939050505061092e565b005b610493610c42565b6040518082815260200191505060405180910390f35b6104b1610c48565b604051808273ffffffffffffffffffffffffffffffffffffffff1673ffffffffffffffffffffffffffffffffffffffff16815260200191505060405180910390f35b606080606060006001600086815260200190815260200160002060000160016000878152602001908152602001600020600101600160008881526020019081526020016000206002016001600089815260200190815260200160002060030154838054600181600116156101000203166002900480601f0160208091040260200160405190810160405280929190818152602001828054600181600116156101000203166002900480156105e85780601f106105bd576101008083540402835291602001916105e8565b820191906000526020600020905b8154815290600101906020018083116105cb57829003601f168201915b50505050509350828054600181600116156101000203166002900480601f0160208091040260200160405190810160405280929190818152602001828054600181600116156101000203166002900480156106845780601f1061065957610100808354040283529160200191610684565b820191906000526020600020905b81548152906001019060200180831161066757829003601f168201915b50505050509250818054600181600116156101000203166002900480601f0160208091040260200160405190810160405280929190818152602001828054600181600116156101000203166002900480156107205780601f106106f557610100808354040283529160200191610720565b820191906000526020600020905b81548152906001019060200180831161070357829003601f168201915b5050505050915093509350935093509193509193565b6001602052806000526040600020600091509050806000018054600181600116156101000203166002900480601f0160208091040260200160405190810160405280929190818152602001828054600181600116156101000203166002900480156107e25780601f106107b7576101008083540402835291602001916107e2565b820191906000526020600020905b8154815290600101906020018083116107c557829003601f168201915b505050505090806001018054600181600116156101000203166002900480601f0160208091040260200160405190810160405280929190818152602001828054600181600116156101000203166002900480156108805780601f1061085557610100808354040283529160200191610880565b820191906000526020600020905b81548152906001019060200180831161086357829003601f168201915b505050505090806002018054600181600116156101000203166002900480601f01602080910402602001604051908101604052809291908181526020018280546001816001161561010002031660029004801561091e5780601f106108f35761010080835404028352916020019161091e565b820191906000526020600020905b81548152906001019060200180831161090157829003601f168201915b5050505050908060030154905084565b600086869050116109a7576040517f08c379a00000000000000000000000000000000000000000000000000000000081526004018080602001828103825260138152602001807f6465736372697074696f6e206d697373696e670000000000000000000000000081525060200191505060405180910390fd5b60008484905011610a20576040517f08c379a000000000000000000000000000000000000000000000000000000000815260040180806020018281038252600f8152602001807f68617368537472206d697373696e67000000000000000000000000000000000081525060200191505060405180910390fd5b604051806080016040528087878080601f016020809104026020016040519081016040528093929190818152602001838380828437600081840152601f19601f82011690508083019250505050505050815260200185858080601f016020809104026020016040519081016040528093929190818152602001838380828437600081840152601f19601f82011690508083019250505050505050815260200183838080601f016020809104026020016040519081016040528093929190818152602001838380828437600081840152601f19601f820116905080830192505050505050508152602001428152506001600060025481526020019081526020016000206000820151816000019080519060200190610b3e929190610c6d565b506020820151816001019080519060200190610b5b929190610c6d565b506040820151816002019080519060200190610b78929190610c6d565b50606082015181600301559050504282826040518083838082843780830192505050925050506040518091039020878760405180838380828437808301925050509250505060405180910390207fef38001ad07035c92bd04574ec422f5a2223e6dc30c59020a91cf0000d4214e8878760405180806020018281038252848482818152602001925080828437600081840152601f19601f820116905080830192505050935050505060405180910390a4600260008154809291906001019190505550505050505050565b60025481565b6000809054906101000a900473ffffffffffffffffffffffffffffffffffffffff1681565b828054600181600116156101000203166002900490600052602060002090601f016020900481019282601f10610cae57805160ff1916838001178555610cdc565b82800160010185558215610cdc579182015b82811115610cdb578251825591602001919060010190610cc0565b5b509050610ce99190610ced565b5090565b610d0f91905b80821115610d0b576000816000905550600101610cf3565b5090565b9056fea265627a7a72315820cb00629fa23cee9ce292e008b6672d282ee67367921b0cac4ddfd7f88fe7de1664736f6c634300050c0032",
  "source": "pragma solidity ^0.5.0;\n\n\n// TODO: factory function!\n\ncontract ProofOfExistence {\n\n    address public owner; // TODO: openZeppelin owner role\n    /*\n    * @dev these two state variables hold the data count and store the data structs\n    */\n    mapping(uint => Data) public DataMap;\n    uint public dataCount;\n\n    /*\n    * @dev each Data has a description, hashStr, and stamp time\n    */\n    struct Data {\n        string description;\n        string hashStr;\n        string tags;\n        uint timeStamp;\n    }\n\n    /*\n    * @dev logs adding an IPFS hash to a User's account\n    */\n    event LogAddIPFSHash(string indexed description, string hashStr, string indexed tags, uint indexed timeStamp);\n\n    constructor() public {\n        owner = msg.sender; // TODO: modify to accept address when factory function implemented\n    }\n\n    /*\n    * @dev Adds ipfs hash using description and hashStr\n    * @param description\n    * @param hashStr\n    */\n    function addIPFSHash(string calldata description, string calldata hashStr, string calldata tags) external {\n        require(bytes(description).length > 0, \"description missing\");\n        require(bytes(hashStr).length > 0, \"hashStr missing\"); // not exact but can do check on front end as a less secure work around\n\n        DataMap[dataCount] = Data(description, hashStr, tags, block.timestamp);\n        emit LogAddIPFSHash(description, hashStr, tags, block.timestamp);\n\n        dataCount++; // can use safeMath but unlikely to overflow uint256\n    }\n\n    /*\n    * @dev getting for the IPFS hash for a user\n    */\n    function getData(uint DataMapIndex) external view returns(string memory description, string memory hashStr, string memory tags, uint timeStamp) {\n        return (DataMap[DataMapIndex].description, DataMap[DataMapIndex].hashStr, DataMap[DataMapIndex].tags, DataMap[DataMapIndex].timeStamp);\n    }\n}\n",
  "sourcePath": "/mnt/c/Users/Legacy/Documents/Code/Ethereum/Consensys-Academy/checkpoints/proofOfExistence/contracts/ProofOfExistence.sol",
  "compiler": {
    "name": "solc",
    "version": "0.5.12+commit.7709ece9.Emscripten.clang"
  },
  "schemaVersion": "3.0.20",
  "updatedAt": "2020-01-17T02:05:53.010Z",
  "networkType": "ethereum",
  "devdoc": {
    "methods": {}
  },
  "userdoc": {
    "methods": {}
  }
}